:020000040800F2
:100000000000022061030008B1030008B1030008EA
:10001000B1030008B1030008B103000800000000AC
:10002000000000000000000000000000B103000814
:10003000B103000800000000B1030008B10300088C
:10004000B1030008B1030008B1030008B1030008C0
:10005000B1030008B1030008B1030008B1030008B0
:10006000B1030008B1030008B1030008B1030008A0
:10007000B1030008B1030008B1030008B103000890
:10008000B1030008B1030008B1030008B103000880
:10009000B1030008B1030008B1030008B103000870
:1000A000B1030008B1030008B1030008B103000860
:1000B000B1030008B1030008B1030008B103000850
:1000C000B1030008B1030008B1030008B103000840
:1000D000B1030008B1030008B1030008B103000830
:1000E000B1030008B1030008B1030008B103000820
:1000F000B1030008B1030008B1030008B103000810
:10010000B1030008B1030008B1030008B1030008FF
:10011000B1030008B1030008B1030008B1030008EF
:10012000B1030008B1030008B1030008B1030008DF
:10013000B10300080000000000000000B103000847
:10014000B1030008B1030008B1030008B1030008BF
:10015000B1030008B1030008B1030008B1030008AF
:10016000B1030008B1030008B1030008B10300089F
:10017000B1030008B103000800000000B10300084B
:08018000B1030008B1030008FF
:1001880010B5054C237833B9044B13B10448AFF3C9
:1001980000800123237010BD04000020000000002F
:1001A800FC0300080C4B43B10C480D4910B5AFF3E4
:1001B80000800C48036823B910BD0A48036833B9A6
:1001C8007047094B002BF7D0BDE810401847064B85
:1001D800002BF5D0184700BF00000000FC03000802
:1001E800080000200400002000000000114A136BE2
:1001F80043F002031363104B1A6822F07F4242F067
:100208002A421A605A6822F470425A609A6842F088
:100218007F429A60DA6822F07F42DA605A6A22F0F6
:10022800BF4222F4FE0242F0AA4242F4AA025A62F3
:10023800704700BF003802400004024008B500F0D3
:1002480029F8FFF7D3FFFEE70F49D1F8883043F4C8
:100258007003C1F888300D4B1A6842F001021A6029
:10026800002098601A6822F0847222F480321A60A2
:10027800074A5A601A6822F480221A60D8604FF040
:1002880000638B60704700BF00ED00E0003802405B
:10029800103000242D4A136843F4803313602B4B2D
:1002A8001B6813F4003FFAD0294A136823F00F03A0
:1002B80043F005031360254B5A6822F03F0242F0D1
:1002C80019025A605A6822F4FF4222F0400242F4AE
:1002D800A8425A605A6822F440325A605A6822F09A
:1002E800706242F0E0625A605A6842F480025A60D2
:1002F8001A6842F080721A60144B1B6813F0007F72
:10030800FAD0124A936823F080039360936823F02D
:10031800030343F0020393600C4B9B6813F0080F30
:10032800FAD00A4A936823F4E05343F4A053936045
:10033800936823F4604343F40043936002F14A4214
:1003480002F5A132034B1A60704700BF0038024023
:10035800003C024000000020DFF834D0002103E018
:100368000C4B5B58435004310B480C4B42189A42D3
:10037800F6D30B4A02E0002342F8043B094B9A42A9
:10038800F9D3FFF761FF00F011F8FFF757FF704747
:10039800000002201C0400080000002004000020C7
:1003A8000400002020000020FEE7000070B50D4E7C
:1003B8000D4CA41BA4100025A54209D10B4E0C4CD2
:1003C80000F018F8A41BA4100025A54205D170BDA3
:1003D80056F8253098470135EEE756F82530984706
:1003E8000135F2E714040008140400081404000896
:1003F80018040008F8B500BFF8BC08BC9E46704752
:0C040800F8B500BFF8BC08BC9E46704769
:04041400AD0100082E
:04041800890100084E
:04041C000024F400C4
:04000005080003618B
:00000001FF
